:030000000208A152
:0C08A100787FE4F6D8FD7581200208E89D
:1003F500B5F7D5FB00B7D6D6D300D0A1CAB100D08A
:10040500C7C6DA00C8D5C6DA00D4C2B7DD00C4EA6B
:10041500B7DD00B1A8CAB100B1B3B9E2003230000E
:100425002D0020003A00C8D500C1F900CEE500CB6B
:10043500C400B6FE00D2BB00CEC2B6C800A1E6001D
:1004450020202020B1CFD2B5C9E8BCC6202020206D
:10045500D0C5B5E7D1A7D4BAD7D4B6AF3039312096
:10046500B6E0B9A6C4DCD0CDB5E7D7D3CAB1D6D3EB
:1004750020202020D7F7D5DFA3BAC0E8CFFE002083
:10048500202020B5E7D7D3CAB1D6D3202020202DF0
:100495002D2D2D2D2D2D2D2D2D202D2D3A2D2D2094
:1004A5002020202020202020202020202020202047
:1004B50020202020202020CEC2B6C82D2DA1E60068
:1004C500413ACAB1D6D32020423AC4D6D6D3204128
:1004D500202020202020205B205D2020202020437C
:1004E50020202020B9A6C4DCB2CBB5A5202020420F
:1004F500433AB1A8CAB12020443AB1B3B9E2204485
:10050500005B2D31202B31204E4558542045534357
:100515005D20202020202020202020202020202099
:1005250020202020202020202020202020202020C6
:1005350020202020202020202020202020202020B6
:1005450020005B2D31202B3120205345542045536D
:10055500435DC4D6D6D3D7DCBFAAB9D82020202086
:100565002020202020202020202020202020202086
:100575002020202020202020202020202020202076
:10058500202000BFAA00B9D8005B2D31202B3120D7
:1005950020202020204553435D202020202020209E
:1005A5002020202020202020202020202020202046
:1005B5002020202020202020202020202020202036
:1005C500202020202020202020005B2D31202B31D1
:1005D500204155544F204553435D202020202020A5
:1005E5002020202020202020202020202020202006
:1005F50020202020202020202020202020202020F6
:10060500202020202020202020200020202020D550
:10061500FBB5E3B1A8CAB1BFAA2020002020202045
:10062500D5FBB5E3B1A8CAB1B9D8202000D7D4B657
:10063500AFB1B3B9E2BFD8D6C62020202000202014
:0F064500B1B3B9E2C1C1B6C82020002F392000DF
:030CF200010900F5
:040B82007F507E0022
:100B8600EF1F70011E144E6013E4FCFDC3ED945874
:0C0B9600EC940250EB0DBD00010C80F04F
:010BA2002230
:060CCD00B2907F587E0288
:0B0CD300EF1FAC0670011E4C70F622F3
:100B5E007D3C120CCDDDFB7D64B2907FE07E0112F8
:100B6E000CD3DDF57D64B2907FB47E00120CD3DD24
:030B7E00F5D2901D
:010B81002251
:100BC2007D32120CCDDDFB7D64B2907F2C7E011252
:0D0BD2000CD3DDF57D32120CCDDDFBD29091
:010BDF0022F3
:10092D007D96B2907F907E01120CD3DDF57FF47E23
:10093D0001120B867D96B2907F907E01120CD3DD55
:10094D00F57FF47E01120B867D96B2907F907E012D
:10095D00120CD3DDF57FF47E01120B867DFAB29079
:0B096D007FC87E00120CD3DDF5D29095
:01097800225C
:0F0003007D64B2907F2C7E01120CD3DDF5D2907C
:0100120022CB
:100C32007BC47A09B2907FB47E00120CD3EB1B7096
:080C4200011AEB4A70EED2909A
:010C4A002287
:100CA800E4FEEF339291D2B2C2B2EF25E0FF0EBE5E
:020CB80008F042
:010CBA002217
:0A09790075F00A84E5F02430F51C47
:100983002001047BF880027BFAE51C54F0FAE51C95
:10099300C454F0F9AF03120CA87F017E00120B863A
:1009A300AF02120CA87F017E00120B86AF01120C5E
:0809B300A87F017E00020B8603
:0F0CDE00C201751C011209837F147E00020B8670
:0609F8007BFF7A04798404
:1009FE008B198A1A891BAB19AA1AA91B120ABF6076
:100A0E0016D201051BE51B7002051A14F9120ABF56
:100A1E00F51C12098380DFAB19AA1AA91BE4020A7E
:010A2E00D8EF
:100B12007FC87E00120B86C201751C30120983C287
:100B220001751C0C120983C201751C011209837F15
:060B3200C87E00020B86E4
:100CBB0075D902E4F5E9F5F975DB42F5EBF5FBD2F5
:020CCB00DE2227
:050CED008FEB8FFB22DC
:100C6400E4F51553070775BC4000EF42BC0043BCD4
:080C7400807F017E00020B8667
:100C4B00E4FF43BC0800000000EF7007E5BC541044
:080C5B00FF80F653BCE7AFBDBA
:010C6300226E
:100C7C00C2B7D2B6D2B4D2B58FA0C2B6C2B58DA00F
:070C8C00D2B5D2B6D2B722A7
:100BFE00D2B6D2B4D2B5C2B78FA0C2B6C2B475A0A7
:090C0E00FFAFA0D2B4D2B6D2B7F8
:010C170022BA
:100AEA00E4FDD2927F50FE120CD3C2927F207E0385
:100AFA00120CD3D2927F8C7E00120CD3A292E433D2
:080B0A00FD7FC87E00020CD340
:100BE000E4FB7D08C292EBC313FBD2923092034325
:0D0BF00003807F287E00120CD3DDE9AF03E7
:010BFD0022D5
:020C1800AD0726
:100C1A007B08C292ED1392927F327E00120CD3D2DD
:070C2A0092EDC313FDDBEBAB
:010C310022A0
:1009BB00120AEA7FCC120C187F44120C187FE87EC7
:1009CB0003120CD3120AEA7FCC120C187FBE120C46
:1009DB00187FE87E03120CD3120BE0AA07120BE070
:0C09EB00EAC4540FFEEFC454F02EF508CF
:0109F70022DD
:100A2F00E4FF120BFE8F107F02120BFE8F0D7F045F
:100A3F00120BFE8F0B7F07120BFE8F0A7F08120B14
:100A4F00FE8F0E7F09120BFE8F137F06120BFE8F88
:020A5F00112262
:0207A7008F15AC
:1007A900C201751C921209837BFF7A0379F512093C
:1007B900FEE515B405127BFF7A0379FA1209FE7575
:1007C900160275173BE4F518E515B404127BFF7A98
:1007D9000379FF1209FE751604751717E4F518E574
:1007E90015B403127BFF7A0479041209FE75160603
:1007F900751707751801E515B402127BFF7A04799C
:10080900091209FE75160775171F751801E515B444
:1008190001127BFF7A04790E1209FE751608751705
:100829000C751801E51570127BFF7A04791312090A
:10083900FE751609751763E4F518E515B41E127BE4
:10084900FF7A0479181209FE75160E751701E4F579
:1008590018E515B428127BFF7A04791D1209FE7573
:10086900160F751709E4F518AF16120BFEAD072020
:1008790081010D2080011DEDD395174002AD18EDC2
:10088900C395185002AD17AF16120C7CE515B405C7
:0708990006E4FDFF120C7CD8
:0108A0002235
:10065400120A2FC201751C881209837BFF7A047960
:10066400221209FED201E51375F00A8412097FD221
:1006740001E5131209797BFF7A0479251209FED268
:1006840001E50E75F00A8412097FD201E50E120904
:10069400797BFF7A0479251209FED201E50A75F007
:1006A4000A8412097FD201E50A1209797BFF7A04D0
:1006B40079271209FED201E50B75F00A8412097F2D
:1006C400D201E50B120979E4FF120BFEEF5401FF8E
:1006D4007BFFBF01067A04792980047A0479271202
:1006E40009FED201E50D75F00A8412097FD201E5F5
:1006F4000D120979C201751C981209837BFF7A04D3
:1007040079041209FEE511B407097BFF7A04792BF9
:100714001209FEE511B406097BFF7A04792E120949
:10072400FEE511B405097BFF7A0479311209FEE56F
:1007340011B404097BFF7A0479341209FEE511B47B
:100744000310D201751CC8120983D201751CFD1255
:100754000983E511B402097BFF7A0479371209FE93
:10076400E511B401097BFF7A04793A1209FEC2014A
:10077400751C9C1209837BFF7A04793D1209FE12D1
:1007840009BBD201E50875F06484E5F075F00A84CC
:1007940012097FD201E5081209797BFF7A047942B4
:0307A4000209FE49
:100A61007FF47E01120B86E4FB7F0F120BFEEF7504
:100A7100F01CA4FFEBC39FE5F06480F874809850EC
:100A810010AF03120CED7F057E00120B860B0B805D
:010A9100D88C
:010A92002241
:030A9300120BC281
:100A96007F0F120BFEEF75F01CA4FBEBD394004006
:100AA60010AF03120CED7F057E00120B861B1B8018
:090AB600EAE4FF120CED020CDE73
:100B3800120C4BAE077F10120BFEBF0118EED394B8
:100B4800D040047F01800B7F0F120BFEEF75F01C65
:050B5800A4FF120CEDEA
:010B5D002275
:100BA300E4FF120BFEEF70167F02120BFEEF700EC6
:0E0BB3007F85120BFEBF010312092D1206549E
:010BC1002211
:10001600C2007F03120C64120CBB120B12D2AFD2B9
:10002600AAD28A120B5E120CDEE4F5097BFF7A0473
:1000360079451209FE120A617FD07E07120B8612DD
:100046000A961209F8120654120A617FF47E01120A
:100056000B867F11120BFEBF0116300013120C32F5
:10006600308009308106308203208304C200D2909A
:10007600E5097059120BA3E4FF120BFEEF650C6045
:100086000DE4FF120BFE8F0C120654120B38308053
:1000960009308106308203208333120B82308009B7
:1000A600308106308203208324120003120A967BD5
:1000B600FF7A0479C51209FE120A61750901750FE6
:1000C600093080FD3081FA3082F73083F4E5096427
:1000D6000160030201C3FF120BFEEF6510602BE403
:1000E600FF120BFE8F10C201751C8C120983D20100
:1000F600E50F12097FD50F12E4F509120003120A63
:10010600961206541209F8120A6130800C308109E1
:100116003082063083030201B7120B8220801D75E0
:10012600090A120A937BFF7A0579061209FE12065E
:1001360054120A61E4F50FAF0F1207A72081381297
:100146000A937BFF7A0579471209FE7F147E001217
:100156000B86C201751C8E1209837F11120BFE7B62
:10016600FFBF01067A05798880047A05798B120922
:10017600FE120A6175091420821A120BC2120A961F
:100186007BFF7A05798E1209FE7F1E1207A7120AD7
:100196006175091E20831A120BC2120A967BFF7A1A
:1001A6000579CF1209FE7F281207A7120A61750981
:1001B600283080FD3081FA3082F73083F4E5096417
:1001C6000A70651206543080093081063082032099
:1001D6008356120B82208214050FE50FC394064046
:1001E60003E4F50FAF0F1207A712000320831712BF
:1001F6000BC2E4F509F50F3080FD120A961206547B
:100206001209F8120A61208008AF0F1207A7120020
:1002160003208108AF0F1207A71200033080FD30BC
:1002260081FA3082F73083F4E50964146003020230
:10023600B8308009308106308203208375120B8224
:10024600208315120BC2E4F5093080FD120A9612BE
:1002560006541209F8120A612082357FC7120BFE76
:10026600BF0104E4FD80027D017FC6120C7CC20141
:10027600751C8E1209837F11120BFE7BFFBF0106D0
:100286007A05798880047A05798B1209FE120BC2E9
:10029600208108AF0F1207A7120003208008AF0FB6
:1002A6001207A71200033080FD3081FA3082F73042
:1002B60083F4E509641E7062C201751C98120983F5
:1002C6007F0E120BFE7BFFBF01067A0679108004B3
:1002D6007A0679211209FE30800630810320833A9E
:1002E600120B82208315120BC2E4F5093080FD1231
:1002F6000A961206541209F8120A61208008AF09FC
:100306001207A7120003208108AF091207A71200DF
:10031600033080FD3081FA3083F7E50964286003F5
:10032600020058C201751C881209837BFF7A067980
:10033600321209FE7F10120BFE7BFFBF01067A0503
:10034600798880047A05798B1209FEC201751C989A
:100356001209837BFF7A0679431209FEC201751CD6
:100366009E1209837F0F120BFEEF2430F51CD2017B
:100376001209837BFF7A0679501209FE3080093014
:100386008106308203208356120B82208315120BBE
:10039600C2E4F5093080FD120A961206541209F8D5
:1003A600120A612082167F10120BFEBF0104E4FDC3
:1003B60080027D017F10120C7C120BC2208108AFD7
:1003C600091207A7120003208008AF091207A71217
:1003D60000033080FD3081FA3082F73083F47F0FDE
:0F03E600120BFEEF75F01CA4FF120CED02005875
:03001300020C9349
:070C9300C0D075D000C007BE
:090C9A00D2007F0C120BFE8F1D2D
:050CA300D007D0D032A3
:1008AD00020016E493A3F8E493A34003F68001F24B
:1008BD0008DFF48029E493A3F85407240CC8C3334C
:1008CD00C4540F4420C8834004F456800146F6DF1B
:1008DD00E4800B0102040810204080900CF2E47EAD
:1008ED00019360BCA3FF543F30E509541FFEE49310
:1008FD00A360010ECF54C025E060A840B8E493A3D7
:10090D00FAE493A3F8E493A3C8C582C8CAC583CA01
:10091D00F0A3C8C582C8CAC583CADFE9DEE780BEB9
:010CF50000FE
:100ABF00BB010689828A83E0225002E722BBFE0235
:090ACF00E32289828A83E4932268
:100AD800BB010689828A83F0225002F722BBFE01FD
:020AE800F322F7
:00000001FF
